{
  "_format": "hh-sol-artifact-1",
  "contractName": "simpleContract",
  "sourceName": "contracts/simple.sol",
  "abi": [
    {
      "inputs": [
        {
          "internalType": "uint256",
          "name": "_val1",
          "type": "uint256"
        }
      ],
      "name": "setVal1",
      "outputs": [],
      "stateMutability": "nonpayable",
      "type": "function"
    },
    {
      "inputs": [
        {
          "internalType": "uint256",
          "name": "_val2",
          "type": "uint256"
        }
      ],
      "name": "setVal2",
      "outputs": [],
      "stateMutability": "nonpayable",
      "type": "function"
    },
    {
      "inputs": [
        {
          "internalType": "string",
          "name": "_val3",
          "type": "string"
        }
      ],
      "name": "setVal3",
      "outputs": [],
      "stateMutability": "nonpayable",
      "type": "function"
    },
    {
      "inputs": [],
      "name": "val1",
      "outputs": [
        {
          "internalType": "uint256",
          "name": "",
          "type": "uint256"
        }
      ],
      "stateMutability": "view",
      "type": "function"
    },
    {
      "inputs": [],
      "name": "val2",
      "outputs": [
        {
          "internalType": "uint256",
          "name": "",
          "type": "uint256"
        }
      ],
      "stateMutability": "view",
      "type": "function"
    },
    {
      "inputs": [],
      "name": "val3",
      "outputs": [
        {
          "internalType": "string",
          "name": "",
          "type": "string"
        }
      ],
      "stateMutability": "view",
      "type": "function"
    }
  ],
  "bytecode": "0x6080604052600a60005560146001556040518060400160405280600b81526020017f48656c6c6f20776f726c640000000000000000000000000000000000000000008152506002908051906020019061005992919061006c565b5034801561006657600080fd5b50610170565b8280546100789061013e565b90600052602060002090601f01602090048101928261009a57600085556100e1565b82601f106100b357805160ff19168380011785556100e1565b828001600101855582156100e1579182015b828111156100e05782518255916020019190600101906100c5565b5b5090506100ee91906100f2565b5090565b5b8082111561010b5760008160009055506001016100f3565b5090565b7f4e487b7100000000000000000000000000000000000000000000000000000000600052602260045260246000fd5b6000600282049050600182168061015657607f821691505b6020821081141561016a5761016961010f565b5b50919050565b6105f18061017f6000396000f3fe608060405234801561001057600080fd5b50600436106100625760003560e01c80630210dac81461006757806395cacbe014610083578063b5133231146100a1578063b52b657d146100bd578063bf9e206d146100d9578063c82fdf36146100f7575b600080fd5b610081600480360381019061007c91906103da565b610115565b005b61008b61012f565b604051610098919061043c565b60405180910390f35b6100bb60048036038101906100b69190610483565b610135565b005b6100d760048036038101906100d29190610483565b61013f565b005b6100e1610149565b6040516100ee9190610538565b60405180910390f35b6100ff6101d7565b60405161010c919061043c565b60405180910390f35b806002908051906020019061012b9291906101dd565b5050565b60015481565b8060008190555050565b8060018190555050565b6002805461015690610589565b80601f016020809104026020016040519081016040528092919081815260200182805461018290610589565b80156101cf5780601f106101a4576101008083540402835291602001916101cf565b820191906000526020600020905b8154815290600101906020018083116101b257829003601f168201915b505050505081565b60005481565b8280546101e990610589565b90600052602060002090601f01602090048101928261020b5760008555610252565b82601f1061022457805160ff1916838001178555610252565b82800160010185558215610252579182015b82811115610251578251825591602001919060010190610236565b5b50905061025f9190610263565b5090565b5b8082111561027c576000816000905550600101610264565b5090565b6000604051905090565b600080fd5b600080fd5b600080fd5b600080fd5b6000601f19601f8301169050919050565b7f4e487b7100000000000000000000000000000000000000000000000000000000600052604160045260246000fd5b6102e78261029e565b810181811067ffffffffffffffff82111715610306576103056102af565b5b80604052505050565b6000610319610280565b905061032582826102de565b919050565b600067ffffffffffffffff821115610345576103446102af565b5b61034e8261029e565b9050602081019050919050565b82818337600083830152505050565b600061037d6103788461032a565b61030f565b90508281526020810184848401111561039957610398610299565b5b6103a484828561035b565b509392505050565b600082601f8301126103c1576103c0610294565b5b81356103d184826020860161036a565b91505092915050565b6000602082840312156103f0576103ef61028a565b5b600082013567ffffffffffffffff81111561040e5761040d61028f565b5b61041a848285016103ac565b91505092915050565b6000819050919050565b61043681610423565b82525050565b6000602082019050610451600083018461042d565b92915050565b61046081610423565b811461046b57600080fd5b50565b60008135905061047d81610457565b92915050565b6000602082840312156104995761049861028a565b5b60006104a78482850161046e565b91505092915050565b600081519050919050565b600082825260208201905092915050565b60005b838110156104ea5780820151818401526020810190506104cf565b838111156104f9576000848401525b50505050565b600061050a826104b0565b61051481856104bb565b93506105248185602086016104cc565b61052d8161029e565b840191505092915050565b6000602082019050818103600083015261055281846104ff565b905092915050565b7f4e487b7100000000000000000000000000000000000000000000000000000000600052602260045260246000fd5b600060028204905060018216806105a157607f821691505b602082108114156105b5576105b461055a565b5b5091905056fea2646970667358221220f1dd4bf979a537211d98a0f56c0bdbf15b5035c6c1327c8df3dd913a7330fb6764736f6c63430008090033",
  "linkReferences": {},
  "deployedLinkReferences": {}
}